:020000004A288C
:100008007E14803120007F08F7000B1D462806303B
:1000180095000B117308803AF60080307602031DB4
:10002800172803307202031C3C2820008C1A3C2835
:100038000130F0070030F13D7108803AF600803059
:100048007602031D292806307002031C2D28F001B2
:10005800F1017308803AF60080307602031D3628D5
:10006800C2307202031C3C28F201F301F001F101D5
:1000780020008C1E44280130F2070030F33D46284A
:10008800F201F3017708FF007E1009004B28F00108
:10009800F101F201F301F401F5017E10200054286A
:1000A80072302100990023008C01283021008C0037
:1000B800823095000630200095000B118B168B17A7
:1000C80022001D100C3025009300023020009C00F7
:1000D80025009101920120009A01F9309B001C151E
:1000E8008628F001F1019128323081287D3081285D
:1000F800AF308128C8308128F93025009100862842
:10010800250091017108803AF80080307802031DBB
:100118008F2806307002031875287108003A0319F1
:10012800962886287008840006300402031886285A
:100138008031A130040782008628842878287A280C
:060148007C287E288028BF
:020000040001F9
:04000E0084CFFFDAC2
:00000001FF
